:100000008BC00000A4C00000A2C00000A0C000007F
:100010009EC000009CC000009AC0000098C0000074
:1000200096C0000094C0000092C0000009C3000008
:10003000B0C300008CC000008AC0000088C000006F
:1000400086C0000084C0000082C0000080C00000A4
:100050007EC000007CC000007AC0000078C00000B4
:1000600076C0000074C0000072C0000070C00000C4
:100070006EC00000260341006E00740065006E0033
:100080006E006100200043006F006E00740072007B
:100090006F006C006C0065007200000026034100D8
:1000A0006E00740065006E006E0061002000430069
:1000B0006F006E00740072006F006C006C006500D1
:1000C000720000000403090409023E00020100C09E
:1000D000320904000001020201000524001001049D
:1000E0002402060524060001070582030800FF0913
:1000F000040100020A0000000705040210000507C1
:100100000583021000051201100102000008EB0334
:10011000442001000102DC0111241FBECFEFD4E016
:10012000DEBFCDBF11E0A0E0B1E0EAE1FBE002C03C
:1001300005900D92A030B107D9F721E0A0E0B1E021
:1001400001C01D92AD30B207E1F7D9D0E4C458CF59
:10015000CF93F82FE92FC62F88B18F7388B93BB1A1
:100160008F2F60E170E0B0D4282F2F703078822F6D
:10017000832B2F2F3E2F37FF02C0215F3F4F94E08C
:10018000359527959A95E1F727702295207F282BA2
:100190002BB9CC2349F0411116C047988AE18A95C2
:1001A000F1F700C0469A0FC0442339F0469885E322
:1001B0008A95F1F70000479A06C047988AE18A9528
:1001C000F1F700C04698CF910895882319F066236F
:1001D00051F00895662371F0449885E38A95F1F70C
:1001E0000000459A0895459885E18A95F1F7000049
:1001F000449A089545988AE18A95F1F700C0449899
:100200000895CF93DF936634710508F050C0EB0179
:1002100041E060E08823E1F0CE019ADF61E080E018
:10022000D4DF8FE99FE00197F1F700C0000060E0A4
:1002300081E0CBDF8FE891E00197F1F700C000008B
:1002400061E080E0C2DF41E060E0CE0181DF1CC000
:10025000CE017EDF61E080E0B8DF8FE99FE00197AB
:10026000F1F700C0000040E061E0CE0171DF8FE8EF
:1002700091E00197F1F700C0000041E060E0CE019D
:1002800067DF61E080E0A1DF9FEF21EE84E0915025
:1002900020408040E1F700C0000040E060E0CE0177
:1002A00057DF60E080E091DF81E090E002C08FEFF7
:1002B0009FEFDF91CF9108958FE484B983E58CBDE2
:1002C000289A089584B7877F84BF0FB6F894A895BD
:1002D00080916000886180936000109260000FBE82
:1002E00090E080E80FB6F8948093610090936100ED
:1002F0000FBE97D18FE78AB980EF87B9DDCFE2DFF4
:1003000060E070E081E07DDF2FEF89E698E1215029
:1003100080409040E1F700C0000060E070E080E0C5
:1003200070DF2FEF89E698E1215080409040E1F79F
:1003300000C00000E5CF292F33272230310559F0C6
:100340002330310569F021303105E9F482E190E094
:1003500026E031E01CC08EE390E028EC30E017C0CE
:1003600099278130910549F028F0029761F4E4E77C
:10037000F0E005C0E4ECF0E002C0ECE9F0E08491CC
:1003800090E09F0104C080E090E020E030E0FA01BE
:1003900031832083089520910B0130910C012617A1
:1003A000370748F06115710539F42091E8002E7780
:1003B0002093E80001C0B901FC0120E0611571053E
:1003C00061F1809104018823D9F18530D9F18091C0
:1003D000E80083FD39C08091E80082FD2BC0809148
:1003E000E80080FFEBCF8091F20090E0611571058D
:1003F00051F08830910538F421912093F10061503B
:1004000071090196F3CF21E0089709F020E080916F
:10041000E8008E778093E800D1CF2111D2CF0AC0B7
:1004200080910401882361F0853061F08091E800BB
:1004300083FD0AC08091E80082FFF2CF80E008953A
:1004400082E0089583E0089581E0089520910B01F2
:1004500030910C012617370748F06115710539F402
:100460002091E8002E772093E80001C0B901FC013B
:1004700020E06115710579F180910401882309F468
:100480003DC0853009F43CC08091E80083FD3AC04E
:100490008091E80082FD2CC08091E80080FFE9CFC8
:1004A0008091F20090E06115710559F08830910556
:1004B00040F424912093F100319661507109019626
:1004C000F2CF21E0089709F020E08091E8008E77D4
:1004D0008093E800CECF2111CFCF0AC080910401D4
:1004E000882361F0853061F08091E80083FD0AC0C7
:1004F0008091E80082FFF2CF80E0089582E00895C5
:1005000083E0089581E00895982F953068F59093E1
:10051000E900981739F07091EC002091ED005091AE
:10052000F00003C0242F762F50E021FD02C09F5F12
:10053000ECCF3091EB003E7F3093EB003091ED003B
:100540003D7F3093ED003091EB0031603093EB0054
:100550007093EC002093ED005093F0002091EE009A
:1005600027FDE5CF80E008958F708093E90081E05A
:1005700008958091050187FF11C08091E80082FDF8
:1005800005C0809104018111F8CF11C08091E8006D
:100590008B770BC080910401882349F08091E8009B
:1005A00080FFF8CF8091E8008E778093E80008956F
:1005B00041D043D08091D8008F778093D80080912C
:1005C000D80080688093D8008091D8008F7D809378
:1005D000D80084E089BD86E089BD09B400FEFDCF66
:1005E0001092040110920001109202011092010178
:1005F00042E060E080E088DF8091E1008E7F8093C0
:10060000E1008091E20081608093E2008091E2004D
:1006100088608093E2008091E0008E7F8093E0000C
:100620000895E3E6F0E080818E7F808381E080930F
:100630000301BECF1092E20008951092E1000895E8
:100640001F920F920FB60F9211242F933F934F9347
:100650005F936F937F938F939F93AF93BF93EF932A
:10066000FF938091E10082FF0AC08091E20082FF47
:1006700006C08091E1008B7F8093E10024D28091BD
:10068000E10080FF17C08091E20080FF13C08091DD
:10069000E2008E7F8093E2008091E200806180938F
:1006A000E2008091D80080628093D80019BC10923B
:1006B000040109D28091E10084FF2FC08091E20003
:1006C00084FF2BC084E089BD86E089BD09B400FEAB
:1006D000FDCF8091D8008F7D8093D8008091E1007C
:1006E0008F7E8093E1008091E2008F7E8093E20014
:1006F0008091E20081608093E20080910001882374
:1007000011F084E007C08091E30087FD02C081E022
:1007100001C083E080930401D6D18091E10083FF82
:1007200027C08091E20083FF23C08091E100877F92
:100730008093E10082E08093040110920001809197
:10074000E1008E7F8093E1008091E2008E7F8093B4
:10075000E2008091E20080618093E20042E060E08C
:1007600080E0D2DE8091F00088608093F000ABD111
:10077000FF91EF91BF91AF919F918F917F916F9179
:100780005F914F913F912F910F900FBE0F901F904F
:1007900018951F920F920FB60F9211242F933F932B
:1007A0004F935F936F937F938F939F93AF93BF9379
:1007B000CF93DF93EF93FF93C091E900CF708091C7
:1007C000EC00D82FD17080FDD0E81092E900809124
:1007D000F000877F8093F00078941ED01092E9009B
:1007E0008091F00088608093F000CD2BCF70C09393
:1007F000E900FF91EF91DF91CF91BF91AF919F9170
:100800008F917F916F915F914F913F912F910F90B9
:100810000FBE0F901F9018951F93CF93DF93CDB706
:10082000DEB7AA970FB6F894DEBF0FBECDBFE5E0E6
:10083000F1E08091F100819321E0ED30F207C9F7FA
:1008400042D18091E80083FF26C1809105019091FB
:100850000601953009F478C030F4913081F168F0E8
:10086000933069F118C1983009F4E2C0993009F465
:10087000F1C0963009F00FC189C0803881F082380C
:1008800009F009C1809109018F708093E90080917E
:10089000EB0085FB882780F91092E90006C0809163
:1008A000010190910201911182609091E800977F7F
:1008B0009093E8008093F1001092F100C4C0282FBB
:1008C0002D7F09F0E8C0882319F0823061F0E3C081
:1008D00080910701813009F0DEC0933009F080E09B
:1008E000809302012BC080910701811127C0809164
:1008F00009018F7009F4CFC08093E9002091EB00CB
:1009000020FF1CC0933021F48091EB00806214C062
:100910009091EB0090619093EB0021E030E0A90111
:1009200002C0440F551F8A95E2F74093EA001092E7
:10093000EA008091EB0088608093EB001092E90060
:100940008091E800877F82C08111A5C010910701C6
:100950001F778091E3008078812B8093E300809162
:10096000E800877F8093E80004DE8091E80080FF44
:10097000FCCF8091E30080688093E300111102C0F6
:1009800082E001C083E08093040185C080588230FA
:1009900008F081C080910701909108018C3D53E0DF
:1009A000950771F583E08A838AE289834FB7F894CB
:1009B000DE01139620E03EE051E2E32FF0E0509399
:1009C0005700E49120FF03C0E295EF703F5FEF70A6
:1009D0008E2F90E0EA3010F0C79601C0C0968D933C
:1009E0009D932F5F243149F74FBF8091E800877FA7
:1009F0008093E8006AE270E0CE010196CCDC12C080
:100A0000AE014F5F5F4F6091090195DCBC01892BFE
:100A100009F441C09091E800977F9093E8008981A4
:100A20009A8114DD8091E8008B778093E80033C0D1
:100A3000803889F58091E800877F8093E800809175
:100A400000018093F1008091E8008E778093E800A8
:100A500090DD21C081111FC0809107019091080194
:100A600099270297C4F48091E800877F8093E8007B
:100A700080910701809300017CDD8091000181114C
:100A800006C08091E30087FD02C081E001C084E0E0
:100A90008093040118D08091E80083FF0AC0809100
:100AA000E800877F8093E8008091EB00806280936C
:100AB000EB00AA960FB6F894DEBF0FBECDBFDF9154
:100AC000CF911F910895089597FB072E16F4009477
:100AD00006D077FD08D00BD007FC05D03EF49095EA
:100AE00081959F4F0895709561957F4F0895AA1B3A
:100AF000BB1B51E107C0AA1FBB1FA617B70710F009
:100B0000A61BB70B881F991F5A95A9F7809590953A
:0A0B1000BC01CD010895F894FFCF59
:00000001FF
