:100000008BC00000A4C00000A2C00000A0C000007F
:100010009EC000009CC000009AC0000098C0000074
:1000200096C0000094C0000092C0000074C300009D
:100030001BC400008CC000008AC0000088C0000003
:1000400086C0000084C0000082C0000080C00000A4
:100050007EC000007CC000007AC0000078C00000B4
:1000600076C0000074C0000072C0000070C00000C4
:100070006EC00000260341006E00740065006E0033
:100080006E006100200043006F006E00740072007B
:100090006F006C006C0065007200000026034100D8
:1000A0006E00740065006E006E0061002000430069
:1000B0006F006E00740072006F006C006C006500D1
:1000C000720000000403090409023E00020100C09E
:1000D000320904000001020201000524001001049D
:1000E0002402060524060001070582030800FF0913
:1000F000040100020A0000000705040210000507C1
:100100000583021000051201100102000008EB0334
:10011000442001000102DC0111241FBECFEFD4E016
:10012000DEBFCDBF11E0A0E0B1E0EAE5FFE002C034
:1001300005900D92A030B107D9F721E0A0E0B1E021
:1001400001C01D92AD30B207E1F747D104C758CFC7
:10015000CF93C82FE92FF62F88B18F7388B93BB1A1
:100160008C2F60E170E0D0D6282F2F703078822F4E
:10017000832B2C2F3E2F37FF02C0215F3F4F54E0CF
:10018000359527955A95E1F727702295207F282BE2
:100190002BB928B181E090E0411102C080E090E0ED
:1001A000880F991F31E0F11101C030E0832B829557
:1001B000880F880F807C822B88B9CF91089598B1E1
:1001C0009F7C98B998B121E030E0611102C020E035
:1001D00030E0220F331F41E0811101C040E0242BA9
:1001E0002295207F292B28B90895CF93DF93663479
:1001F000710508F080C0EB0141E060E0882309F45C
:1002000040C0CE01A5DF61E080E0D9DF8FE99FE04B
:100210000197F1F700C0000060E081E0D0DF8FE8D7
:1002200091E00197F1F700C0000041E060E0CE01ED
:100230008FDF61E080E0C3DF41E060E0CE0188DF76
:1002400061E080E0BCDF41E060E0CE0181DF61E0A1
:1002500080E0B5DF41E060E0CE017ADF61E080E080
:10026000AEDF40E060E0CE0173DF60E080E0A7DF5A
:100270008FE99FE00197F1F700C0000080E485B9A5
:1002800037C0CE0165DF61E080E099DF8FE99FE054
:100290000197F1F700C0000040E061E0CE0158DFB7
:1002A0008FE891E00197F1F700C0000041E060E0C5
:1002B000CE014EDF61E080E082DF41E060E0CE0110
:1002C00047DF61E080E07BDF41E060E0CE0140DFBE
:1002D00061E080E074DF40E060E0CE0139DF60E0A3
:1002E00080E06DDF8FE99FE00197F1F700C000002B
:1002F00081E090E002C08FEF9FEFDF91CF910895F2
:100300002AE939E949E150E44BD420E030E040ECFF
:100310005FE3AAD420E030E040E85FE340D49B01F3
:10032000AC0160E07CED82E897E49ED420E030E010
:100330004FE753E47ED520E030E44CE955E494D413
:10034000FBD46F3F710519F010F06FEF70E08FEF85
:1003500090E0861B970B08958FE484B983E58CBDEC
:10036000289A089584B7877F84BF0FB6F894A8951C
:1003700080916000886180936000109260000FBEE1
:1003800090E080E80FB6F89480936100909361004C
:100390000FBEB2D18FE78AB980EF87B9DDCF8EBDAE
:1003A0000DB407FEFDCF0895CF93DF93A9DFEC01D5
:1003B00028988FE99FE00197F1F700C00000CE0177
:1003C000882791709260892FEADF8C2FE8DF289AC6
:1003D00080E090E0DF91CF910895C4DF60E070E0AD
:1003E00088EC91E4E1DF40E060E084E390E0B0DE9F
:1003F00061E070E080E0F9DE2FEF81EE94E02150C3
:1004000080409040E1F700C00000F2CF292F332751
:100410002230310559F02330310569F021303105A2
:10042000E9F482E190E026E031E01CC08EE390E048
:1004300028EC30E017C099278130910549F028F069
:10044000029761F4E4E7F0E005C0E4ECF0E002C0FC
:10045000ECE9F0E0849190E09F0104C080E090E03E
:1004600020E030E0FA0131832083089520910B01D0
:1004700030910C012617370748F06115710539F4E2
:100480002091E8002E772093E80001C0B901FC011B
:1004900020E06115710561F1809104018823D9F193
:1004A0008530D9F18091E80083FD39C08091E80062
:1004B00082FD2BC08091E80080FFEBCF8091F2009D
:1004C00090E06115710551F08830910538F4219163
:1004D0002093F100615071090196F3CF21E0089754
:1004E00009F020E08091E8008E778093E800D1CF7A
:1004F0002111D2CF0AC080910401882361F0853098
:1005000061F08091E80083FD0AC08091E80082FFDD
:10051000F2CF80E0089582E0089583E0089581E0BD
:10052000089520910B0130910C012617370748F0F0
:100530006115710539F42091E8002E772093E800C9
:1005400001C0B901FC0120E06115710579F18091CC
:100550000401882309F43DC0853009F43CC0809132
:10056000E80083FD3AC08091E80082FD2CC08091B4
:10057000E80080FFE9CF8091F20090E061157105FD
:1005800059F08830910540F424912093F100319680
:10059000615071090196F2CF21E0089709F020E03F
:1005A0008091E8008E778093E800CECF2111CFCFE5
:1005B0000AC080910401882361F0853061F0809148
:1005C000E80083FD0AC08091E80082FFF2CF80E05E
:1005D000089582E0089583E0089581E00895982FBA
:1005E000953068F59093E900981739F07091EC0018
:1005F0002091ED005091F00003C0242F762F50E0A1
:1006000021FD02C09F5FECCF3091EB003E7F309325
:10061000EB003091ED003D7F3093ED003091EB0029
:1006200031603093EB007093EC002093ED00509319
:10063000F0002091EE0027FDE5CF80E008958F7057
:100640008093E90081E008958091050187FF11C042
:100650008091E80082FD05C0809104018111F8CFEE
:1006600011C08091E8008B770BC080910401882332
:1006700049F08091E80080FFF8CF8091E8008E7704
:100680008093E800089541D043D08091D8008F77BF
:100690008093D8008091D80080688093D8008091A2
:1006A000D8008F7D8093D80084E089BD86E089BD25
:1006B00009B400FEFDCF10920401109200011092C7
:1006C00002011092010142E060E080E088DF809149
:1006D000E1008E7F8093E1008091E2008160809351
:1006E000E2008091E20088608093E2008091E00067
:1006F0008E7F8093E0000895E3E6F0E080818E7FB6
:10070000808381E080930301BECF1092E2000895C0
:100710001092E10008951F920F920FB60F921124CC
:100720002F933F934F935F936F937F938F939F93F9
:10073000AF93BF93EF93FF938091E10082FF0AC0D4
:100740008091E20082FF06C08091E1008B7F809360
:10075000E10024D28091E10080FF17C08091E20087
:1007600080FF13C08091E2008E7F8093E200809131
:10077000E20080618093E2008091D80080628093E3
:10078000D80019BC1092040109D28091E10084FFC5
:100790002FC08091E20084FF2BC084E089BD86E0F9
:1007A00089BD09B400FEFDCF8091D8008F7D809374
:1007B000D8008091E1008F7E8093E1008091E2007B
:1007C0008F7E8093E2008091E20081608093E2005E
:1007D00080910001882311F084E007C08091E3003C
:1007E00087FD02C081E001C083E080930401D6D17F
:1007F0008091E10083FF27C08091E20083FF23C046
:100800008091E100877F8093E10082E08093040182
:10081000109200018091E1008E7F8093E100809131
:10082000E2008E7F8093E2008091E20080618093FD
:10083000E20042E060E080E0D2DE8091F00088607B
:100840008093F000ABD1FF91EF91BF91AF919F9159
:100850008F917F916F915F914F913F912F910F9069
:100860000FBE0F901F9018951F920F920FB60F9208
:1008700011242F933F934F935F936F937F938F93A5
:100880009F93AF93BF93CF93DF93EF93FF93C09169
:10089000E900CF708091EC00D82FD17080FDD0E8B6
:1008A0001092E9008091F000877F8093F0007894A7
:1008B0001ED01092E9008091F00088608093F000D3
:1008C000CD2BCF70C093E900FF91EF91DF91CF91D5
:1008D000BF91AF919F918F917F916F915F914F9158
:1008E0003F912F910F900FBE0F901F9018951F935F
:1008F000CF93DF93CDB7DEB7AA970FB6F894DEBFDC
:100900000FBECDBFE5E0F1E08091F100819321E0E1
:10091000ED30F207C9F742D18091E80083FF26C18C
:100920008091050190910601953009F478C030F46A
:10093000913081F168F0933069F118C1983009F471
:10094000E2C0993009F4F1C0963009F00FC189C0B6
:10095000803881F0823809F009C1809109018F70D7
:100960008093E9008091EB0085FB882780F9109245
:10097000E90006C08091010190910201911182600D
:100980009091E800977F9093E8008093F100109297
:10099000F100C4C0282F2D7F09F0E8C0882319F08A
:1009A000823061F0E3C080910701813009F0DEC040
:1009B000933009F080E0809302012BC08091070101
:1009C000811127C0809109018F7009F4CFC08093F5
:1009D000E9002091EB0020FF1CC0933021F48091AE
:1009E000EB00806214C09091EB0090619093EB005B
:1009F00021E030E0A90102C0440F551F8A95E2F7BB
:100A00004093EA001092EA008091EB0088608093A6
:100A1000EB001092E9008091E800877F82C081118D
:100A2000A5C0109107011F778091E3008078812B8A
:100A30008093E3008091E800877F8093E80004DEE4
:100A40008091E80080FFFCCF8091E3008068809374
:100A5000E300111102C082E001C083E08093040131
:100A600085C08058823008F081C080910701909144
:100A700008018C3D53E0950771F583E08A838AE293
:100A800089834FB7F894DE01139620E03EE051E2EF
:100A9000E32FF0E050935700E49120FF03C0E2956C
:100AA000EF703F5FEF708E2F90E0EA3010F0C79646
:100AB00001C0C0968D939D932F5F243149F74FBF9E
:100AC0008091E800877F8093E8006AE270E0CE01C1
:100AD0000196CCDC12C0AE014F5F5F4F60910901FF
:100AE00095DCBC01892B09F441C09091E800977F07
:100AF0009093E80089819A8114DD8091E8008B77DA
:100B00008093E80033C0803889F58091E800877FC2
:100B10008093E800809100018093F1008091E800CB
:100B20008E778093E80090DD21C081111FC08091F5
:100B300007019091080199270297C4F48091E80079
:100B4000877F8093E80080910701809300017CDD1E
:100B500080910001811106C08091E30087FD02C0F1
:100B600081E001C084E08093040118D08091E80006
:100B700083FF0AC08091E800877F8093E80080911E
:100B8000EB0080628093EB00AA960FB6F894DEBF6C
:100B90000FBECDBFDF91CF911F910895089550589A
:100BA000BB27AA270ED00BC1FCD030F001D120F01A
:100BB00031F49F3F11F41EF4F1C00EF4E095E7FB11
:100BC000E7C0E92F0DD180F3BA17620773078407D6
:100BD000950718F071F49EF525C10EF4E0950B2EE3
:100BE000BA2FA02D0B01B90190010C01CA01A0017F
:100BF0001124FF27591B99F0593F50F4503E68F1DA
:100C00001A16F040A22F232F342F4427585FF3CF1A
:100C1000469537952795A795F0405395C9F77EF4EB
:100C20001F16BA0B620B730B840BBAF09150A1F034
:100C3000FF0FBB1F661F771F881FC2F70EC0BA0FBA
:100C4000621F731F841F48F4879577956795B79542
:100C5000F7959E3F08F0B3CF9395880F08F099273A
:100C6000EE0F9795879508950CD0A9C0A1D040F0BC
:100C700098D030F021F45F3F19F08AC05111D3C0F1
:100C80008DC0AED098F39923C9F35523B1F3951BCA
:100C9000550BBB27AA2762177307840738F09F5F9D
:100CA0005F4F220F331F441FAA1FA9F333D00E2E0C
:100CB0003AF0E0E830D091505040E695001CCAF779
:100CC00029D0FE2F27D0660F771F881FBB1F26173E
:100CD00037074807AB07B0E809F0BB0B802DBF0111
:100CE000FF2793585F4F2AF09E3F510568F050C090
:100CF0009AC05F3FECF3983EDCF386957795679555
:100D0000B795F7959F5FC9F7880F911D96958795C1
:100D100097F90895E1E0660F771F881FBB1F6217E0
:100D200073078407BA0720F0621B730B840BBA0B9E
:100D3000EE1F88F7E09508955BD088F09F5790F0FC
:100D4000B92F9927B751A0F0D1F0660F771F881FF0
:100D5000991F1AF0BA95C9F712C0B13081F062D06C
:100D6000B1E008955FC0672F782F8827B85F39F00A
:100D7000B93FCCF3869577956795B395D9F73EF44F
:100D800090958095709561957F4F8F4F9F4F0895F7
:100D900097F99F6780E870E060E008959FEF80EC2E
:100DA000089500240A9416161706180609060895D1
:100DB00000240A9412161306140605060895092E37
:100DC0000394000C11F4882352F0BB0F40F4BF2BA6
:100DD00011F460FF04C06F5F7F4F8F4F9F4F0895E6
:100DE00057FD9058440F551F59F05F3F71F04795DC
:100DF000880F97FB991F61F09F3F79F087950895C1
:100E0000121613061406551FF2CF4695F1DF08C0DF
:100E1000161617061806991FF1CF869571056105FC
:100E200008940895E894BB2766277727CB0197F9A4
:100E300008950AD0C4CFB5DF28F0BADF18F09523A3
:100E400009F0A6CFABCFEFCFCBDFA8F39923D9F32F
:100E50005523C9F3950F50E0551FAA27EE27FF270A
:100E6000BB2700240894679520F4E20FF31FB41FFA
:100E70000A1E220F331F441FAA1F6695A9F77795F4
:100E800030F4F30FB41F0A1E121E08F46395330FDB
:100E9000441FAA1F221F769599F7879520F4B40F57
:100EA0000A1E121E631F440FAA1F221F331F86959E
:100EB000A9F7862F712D602D11249F5750408AF07D
:100EC000E1F088234AF0EE0FFF1FBB1F661F771F5C
:100ED000881F91505040A9F79E3F510570F058CFA0
:100EE000A2CF5F3FECF3983EDCF38695779567954C
:100EF000B795F795E7959F5FC1F7FE2B880F911D7A
:100F00009695879597F9089597FB072E16F4009408
:100F100006D077FD08D00BD007FC05D03EF49095A5
:100F200081959F4F0895709561957F4F0895AA1BF5
:100F3000BB1B51E107C0AA1FBB1FA617B70710F0C4
:100F4000A61BB70B881F991F5A95A9F780959095F6
:0A0F5000BC01CD010895F894FFCF15
:00000001FF
