:100000008BC00000A5C00000A3C00000A1C000007C
:100010009FC000009DC000009BC0000099C0000070
:1000200097C0000095C0000093C0000030C40000DD
:10003000D7C400008DC000008BC0000089C0000044
:1000400087C0000085C0000083C0000081C00000A0
:100050007FC000007DC000007BC0000079C00000B0
:1000600077C0000075C0000073C0000071C00000C0
:100070006FC00000260341006E00740065006E0032
:100080006E006100200043006F006E00740072007B
:100090006F006C006C0065007200000026034100D8
:1000A0006E00740065006E006E0061002000430069
:1000B0006F006E00740072006F006C006C006500D1
:1000C000720000000403090409023E00020100C09E
:1000D000320904000001020201000524001001049D
:1000E0002402060524060001070582030800FF0913
:1000F000040100020A0000000705040210000507C1
:100100000583021000051201100102000008EB0334
:10011000442001000102DC0111241FBECFEFD4E016
:10012000DEBFCDBF11E0A0E0B1E0E4E9FAE102C03A
:1001300005900D92A838B107D9F721E0A8E8B1E001
:1001400001C01D92A73AB207E1F786D10C94480D81
:1001500057CFCF93F82FE92FC62F88B18F7388B967
:100160003BB18F2F60E170E08AD7282F2F70307855
:10017000822F832B2F2F3E2F37FF02C0215F3F4F4F
:1001800094E0359527959A95E1F727702295207F81
:10019000282B2BB9CC2349F0411116C047988AE08F
:1001A0008A95F1F700C0469A0FC0442339F046986B
:1001B0008AE08A95F1F700C0479A06C047988AE11D
:1001C0008A95F1F700C04698CF910895882319F0D9
:1001D000662351F00895662371F044988AE08A9569
:1001E000F1F700C0459A089545988AE08A95F1F79D
:1001F00000C0449A089545988AE18A95F1F700C0B5
:1002000044980895CF93DF936634710508F04EC08B
:10021000EB0140E060E0882309F1CE019ADF60E065
:1002200080E0D4DF8FE99FE00197F1F700C0000084
:1002300060E081E0CBDF41E060E080E090E089DFDA
:100240008FE891E00197F1F700C0000060E080E0E6
:10025000BDDF40E060E0CE017CDF1FC0CE0179DF72
:1002600060E080E0B3DF8FE99FE00197F1F700C025
:10027000000040E061E0CE016CDF61E080E0A6DFDD
:100280008FE891E00197F1F700C0000040E060E0E6
:10029000CE015FDF60E080E099DF8FE99FE00197AA
:1002A000F1F700C0000081E090E002C08FEF9FEF07
:1002B000DF91CF910895CF92DF92EF92FF920F934B
:1002C0001F93CF93DF93CDB7DEB76E970FB6F89439
:1002D000DEBF0FBECDBF4AE851E06AE070E0CE015C
:1002E00045960E949609892B09F484C08D898B322A
:1002F00039F08D3229F06AE871E08BE191E032C08B
:10030000DE015696FE013B96BE016C5E7F4F20E0FB
:1003100030E0CF014D914C3529F02115310511F414
:10032000408302C021E030E03196E617F70791F7ED
:100330001092A6011092A5014AE050E060E070E042
:10034000C5D66B017C018091A5019091A601892BF6
:1003500029F4C114D104E104F10439F46AE871E02C
:100360008CE391E00E94BF0945C08D898B32F1F486
:10037000B6016150710981E045DF97FF05C06AE869
:1003800071E088E491E0EECFDF92CF9285E591E0D5
:100390009F938F938E010F5F1F4F1F930F930E94A8
:1003A000E8096AE871E088E591E019C08D3211F53D
:1003B000B6016150710980E025DF97FDE0CFDF9243
:1003C000CF9285E591E09F938F938E010F5F1F4F32
:1003D0001F930F93FDD76AE871E080E791E0CFD7D4
:1003E0006AE871E0C801CBD70F900F900F900F9083
:1003F0000F900F906E960FB6F894DEBF0FBECDBF74
:10040000DF91CF911F910F91FF90EF90DF90CF90F0
:1004100008958FE484B983E58CBD289A089584B744
:10042000877F84BF0FB6F894A8958091600088619B
:1004300080936000109260000FBE90E080E80FB6DD
:10044000F89480936100909361000FBE11D28FE702
:100450008AB980EF87B9DDCFE2DF6AE871E080E03A
:1004600091E049D5789478948091880190918901A0
:10047000892BD1F320DF80E091E0F1D44CD4F4CF8C
:1004800081E090E090938901809388010895109213
:10049000890110928801089580E091E056C480E0BF
:1004A00091E03DC5292F33272230310559F0233003
:1004B000310569F021303105E9F482E190E026E070
:1004C00031E01CC08EE390E028EC30E017C09927A3
:1004D0008130910549F028F0029761F4E4E7F0E0FB
:1004E00005C0E4ECF0E002C0ECE9F0E0849190E0BB
:1004F0009F0104C080E090E020E030E0FA01318309
:10050000208308952091A3013091A4012617370775
:1005100048F06115710539F42091E8002E77209399
:10052000E80001C0B901FC0120E06115710561F12D
:1005300080919C018823D9F18530D9F18091E80020
:1005400083FD39C08091E80082FD2BC08091E800D6
:1005500080FFEBCF8091F20090E06115710551F0C2
:100560008830910538F421912093F1006150710990
:100570000196F3CF21E0089709F020E08091E80090
:100580008E778093E800D1CF2111D2CF0AC080911D
:100590009C01882361F0853061F08091E80083FD43
:1005A0000AC08091E80082FFF2CF80E0089582E0E7
:1005B000089583E0089581E008952091A30130918A
:1005C000A4012617370748F06115710539F4209109
:1005D000E8002E772093E80001C0B901FC0120E07B
:1005E0006115710579F180919C01882309F43DC062
:1005F000853009F43CC08091E80083FD3AC08091C9
:10060000E80082FD2CC08091E80080FFE9CF809156
:10061000F20090E06115710559F08830910540F4C1
:1006200024912093F1003196615071090196F2CF27
:1006300021E0089709F020E08091E8008E77809310
:10064000E800CECF2111CFCF0AC080919C01882332
:1006500061F0853061F08091E80083FD0AC08091EF
:10066000E80082FFF2CF80E0089582E0089583E001
:10067000089581E00895982F953068F59093E900EA
:10068000981739F07091EC002091ED005091F00036
:1006900003C0242F762F50E021FD02C09F5FECCFD6
:1006A0003091EB003E7F3093EB003091ED003D7FC9
:1006B0003093ED003091EB0031603093EB0070939C
:1006C000EC002093ED005093F0002091EE0027FD08
:1006D000E5CF80E008958F708093E90081E0089570
:1006E0000F931F93CF93DF93062FEC0110E01017A9
:1006F00071F19881911103C01F5F2596F8CF2C816D
:10070000A981BA816B81892F8F70853010F080E0CC
:100710001FC0223010F442E001C046E0E8E0F0E003
:1007200020E0EA17FB0720F42F5FEE0FFF1FF9CF41
:100730002295207F422B6295660F660F607C991F81
:100740009927991F692B97DF8111D6CFE0CF81E0E0
:10075000DF91CF911F910F91089580919D0187FFA7
:1007600011C08091E80082FD05C080919C0181113B
:10077000F8CF11C08091E8008B770BC080919C016D
:10078000882349F08091E80080FFF8CF8091E8004D
:100790008E778093E80008952091E4003091E50081
:1007A00095E64091EC00842F817040FF23C080913A
:1007B000E80080FD1DC080919C01882399F0853060
:1007C00099F08091EB0085FD11C04091E4005091BB
:1007D000E5002417350729F3915011F09A01E1CF74
:1007E00084E0089582E0089583E0089581E008950B
:1007F00080E008954091E80042FFDDCF089541D0A8
:1008000043D08091D8008F778093D8008091D80012
:1008100080688093D8008091D8008F7D8093D80025
:1008200084E089BD86E089BD09B400FEFDCF109249
:100830009C011092980110929A011092990142E045
:1008400060E080E018DF8091E1008E7F8093E1001E
:100850008091E20081608093E2008091E2008860F4
:100860008093E2008091E0008E7F8093E000089505
:10087000E3E6F0E080818E7F808381E080939B01BE
:10088000BECF1092E20008951092E10008951F92E9
:100890000F920FB60F9211242F933F934F935F93B4
:1008A0006F937F938F939F93AF93BF93EF93FF9338
:1008B0008091E10082FF0AC08091E20082FF06C0C1
:1008C0008091E1008B7F8093E10024D28091E10050
:1008D00080FF17C08091E20080FF13C08091E2008A
:1008E0008E7F8093E2008091E20080618093E2003D
:1008F0008091D80080628093D80019BC10929C012E
:10090000C6DD8091E10084FF2FC08091E20084FF6A
:100910002BC084E089BD86E089BD09B400FEFDCF0F
:100920008091D8008F7D8093D8008091E1008F7EE8
:100930008093E1008091E2008F7E8093E2008091BD
:10094000E20081608093E20080919801882311F099
:1009500084E007C08091E30087FD02C081E001C010
:1009600083E080939C018CDD8091E10083FF27C0B0
:100970008091E20083FF23C08091E100877F809314
:10098000E10082E080939C01109298018091E10047
:100990008E7F8093E1008091E2008E7F8093E20061
:1009A0008091E20080618093E20042E060E080E0BC
:1009B00062DE8091F00088608093F000ABD1FF91FF
:1009C000EF91BF91AF919F918F917F916F915F91C7
:1009D0004F913F912F910F900FBE0F901F90189540
:1009E0001F920F920FB60F9211242F933F934F93A4
:1009F0005F936F937F938F939F93AF93BF93CF93A7
:100A0000DF93EF93FF93C091E900CF708091EC00EA
:100A1000D82FD17080FDD0E81092E9008091F000CD
:100A2000877F8093F00078941ED01092E900809127
:100A3000F00088608093F000CD2BCF70C093E90068
:100A4000FF91EF91DF91CF91BF91AF919F918F91E6
:100A50007F916F915F914F913F912F910F900FBEBA
:100A60000F901F9018951F93CF93DF93CDB7DEB7EC
:100A7000AA970FB6F894DEBF0FBECDBFEDE9F1E047
:100A80008091F100819321E0E53AF207C9F707DD93
:100A90008091E80083FF26C180919D0190919E0185
:100AA000953009F478C030F4913081F168F09330DA
:100AB00069F118C1983009F4E2C0993009F4F1C025
:100AC000963009F00FC189C0803881F0823809F072
:100AD00009C18091A1018F708093E9008091EB00A2
:100AE00085FB882780F91092E90006C08091990162
:100AF00090919A01911182609091E800977F909374
:100B0000E8008093F1001092F100C4C0282F2D7FDF
:100B100009F0E8C0882319F0823061F0E3C08091C9
:100B20009F01813009F0DEC0933009F080E08093AE
:100B30009A012BC080919F01811127C08091A10152
:100B40008F7009F4CFC08093E9002091EB0020FF63
:100B50001CC0933021F48091EB00806214C090910E
:100B6000EB0090619093EB0021E030E0A90102C01E
:100B7000440F551F8A95E2F74093EA001092EA006D
:100B80008091EB0088608093EB001092E9008091E7
:100B9000E800877F82C08111A5C010919F011F7757
:100BA0008091E3008078812B8093E3008091E800BE
:100BB000877F8093E800D1DD8091E80080FFFCCF43
:100BC0008091E30080688093E300111102C082E00D
:100BD00001C083E080939C0185C08058823008F07A
:100BE00081C080919F019091A0018C3D53E09507B9
:100BF00071F583E08A838AE289834FB7F894DE0136
:100C0000139620E03EE051E2E32FF0E050935700CE
:100C1000E49120FF03C0E295EF703F5FEF708E2FED
:100C200090E0EA3010F0C79601C0C0968D939D9376
:100C30002F5F243149F74FBF8091E800877F809371
:100C4000E8006AE270E0CE0101965CDC12C0AE0101
:100C50004F5F5F4F6091A10125DCBC01892B09F436
:100C600041C09091E800977F9093E80089819A8134
:100C7000A4DC8091E8008B778093E80033C0803853
:100C800089F58091E800877F8093E8008091980142
:100C90008093F1008091E8008E778093E8005DDD1D
:100CA00021C081111FC080919F019091A0019927BF
:100CB0000297C4F48091E800877F8093E8008091D8
:100CC0009F018093980149DD80919801811106C0B0
:100CD0008091E30087FD02C081E001C084E0809341
:100CE0009C01DADB8091E80083FF0AC08091E80074
:100CF000877F8093E8008091EB0080628093EB0017
:100D0000AA960FB6F894DEBF0FBECDBFDF91CF918C
:100D10001F9108950895CF9380919C01882399F0A5
:100D2000C091E900CF709091EC00892F817090FD07
:100D300080E8C82B1092E9008091E80083FD93DEE3
:100D4000CF70C093E900CF910895CF93DF93EC016A
:100D5000FC0170968BE0DF011D928A95E9F782E035
:100D60008C83898783E08E8761E0CE010196B8DCB1
:100D7000882361F061E0CE010696B2DC882331F071
:100D800061E0CE010B96DF91CF91AACC80E0DF919C
:100D9000CF9108950F931F93CF9320919C012430FE
:100DA000F9F4FC010489158926893789012B022B66
:100DB000032BB1F0C62F81818F708093E900809161
:100DC000E80085FF04C0C093F10080E00AC0809174
:100DD000E8008E778093E800DFDC8823A1F301C070
:100DE00082E0CF911F910F910895FB01682F8485B8
:100DF0009585D0DF21E030E0811102C020E030E0B5
:100E000088279927821B930B089520919C012430F9
:100E100021F5FC014489558966897789452B462B44
:100E2000472BD9F081818F708093E9008091F20087
:100E3000882389F09091E8008091E8008E77809374
:100E4000E80095FD08C0A8DC811108C08091E80089
:100E50008E778093E80080E0089582E008952091E5
:100E60009C01243089F4FC0144895589668977897D
:100E7000452B462B472B41F021812F702093E90011
:100E80002091E80020FDC1CF089520919C012430DD
:100E900019F08FEF9FEF0895FC0144895589668909
:100EA0007789452B462B472BA1F386818F70809342
:100EB000E9008091E80082FFECCF8091F200882366
:100EC00021F02091F10030E002C02FEF3FEF809140
:100ED000F200811105C08091E8008B778093E800D3
:100EE000C9010895FC0184859585CFDF97FF02C075
:100EF0008EEF9FEF0895FB012EE0DB011D922A95F6
:100F0000E9F723E0238325EF36E03187208722E7C6
:100F100037E0338722879587848708950895CF9394
:100F2000DF93EC018091E80083FFA6C0888190E008
:100F30002091A1013091A2012817390709F09CC026
:100F400080919E01813261F020F4803209F43EC02C
:100F500093C0823209F46CC0833209F47DC08CC026
:100F600080919D01813A09F087C08091E800877FD8
:100F70008093E8008091E80080FFFCCF8C899D89F8
:100F8000AE89BF898093F100492F5A2F6B2F7727A5
:100F90004093F100AD01662777274093F1008B2F36
:100FA0009927AA27BB278093F100888D8093F100B1
:100FB000898D8093F1008A8D8093F1008091E80003
:100FC0008E778093E800DF91CF91C7CB80919D0110
:100FD000813209F051C08091E800877F8093E8005A
:100FE0008091E80082FD05C080919C018111F8CFBD
:100FF00043C03091F1002091F1009091F100809177
:10100000F1003C8B2D8B9E8B8F8B8091F100888F14
:101010008091F100898F8091F1008A8F8091E800A2
:101020008B778093E80099DBCE01DF91CF9176CF6B
:1010300080919D01813201F58091E800877F809346
:10104000E8008BDB80919F019091A001998B888BA8
:10105000CE01DF91CF9162CF80919D01813261F409
:101060008091E800877F8093E80077DB60919F01A3
:10107000CE01DF91CF9152CFDF91CF91089597FBB1
:10108000072E16F4009406D077FD08D00BD007FC8D
:1010900005D03EF4909581959F4F08957095619588
:1010A0007F4F0895AA1BBB1B51E107C0AA1FBB1F9E
:1010B000A617B70710F0A61BB70B881F991F5A95E4
:1010C000A9F780959095BC01CD010895A3E0B0E00B
:1010D000EBE6F8E0A6C45C016B017A0161157105CD
:1010E00019F0FB0191838083E114F10429F0C70119
:1010F0000297839708F0FDC085010F5F1F4FF50130
:10110000F081FA838F2F90E009D1892B11F05801DB
:10111000F3CF2A812D3241F40F5F1F4FF501F1818A
:10112000FA8321E02B830AC08A818B3231F4850156
:101130000E5F1F4FF501F181FA831B82E114F10468
:10114000F9F020E1E216F10419F442C0F0E3FA8369
:1011500088E0E816F10431F154F4E2E0EE16F1040F
:1011600051F5812C912CA12C50E4B52E48C0FAE009
:10117000EF16F10441F020E1E216F104E1F43AC087
:101180008A81803341F13AE0E32EF12C4CEC842E3D
:10119000982CA82C4CE0B42E32C0E114F104B1F626
:1011A00080E38A8398E0E92EF12C812C912CA12CEC
:1011B00020E1B22E24C060E070E080E090E897016A
:1011C0000F2C000C440B550B0AD449015A0117C0CF
:1011D0002A81203379F4F80180818F7D8835E9F602
:1011E000F181FA830E5F1F4F2B8122602B8360E118
:1011F000E62EF12C812C912CA12C88E0B82E80E0D9
:1012000020E030E0A90127010F2C000C66087708C8
:1012100018019A81905399839A3078F09A81915469
:101220009A3120F4EA81E753E98307C09A81915605
:101230009A3148F5FA81F755F9839981692F70E061
:101240006E157F0504F587FD18C082169306A40667
:10125000B50680F0C301B201A9D39B01AC01E981BD
:101260002E0F311D411D511D213031054105F0E882
:101270005F0710F08FEF01C081E00F5F1F4FF1019A
:10128000F081FA83C5CF9B819170C114D10489F09C
:10129000882331F001501109F6011183008309C040
:1012A000FB81F1FF1AC002501109F601118300837E
:1012B00014C087FF12C0992329F020E030E040E0FD
:1012C00050E804C02FEF3FEF4FEF5FE782E290E07E
:1012D0009093A6018093A50109C0992379F05095B8
:1012E0004095309521953F4F4F4F5F4FB901CA014F
:1012F00012C060E070E080E090E00DC057FFF6CFD4
:1013000082E290E09093A6018093A5012FEF3FEF3A
:101310004FEF5FE7EBCF2396E2E19FC391114AC203
:10132000803219F089508550D0F70895A0E0B0E0E0
:10133000EBE9F9E080C3FA01238120FD03C080E0DE
:1013400090E019C016161706D4F77A018C01EB014C
:101350006C01C130D10561F0C70145D28F3FFFEF6D
:101360009F0769F3F60181936F0121970A9789F727
:10137000F6011082C801CDB7DEB7E8E078C3EF927E
:10138000FF920F931F93CF93DF93DB0113962C9162
:1013900021FF18C08B017C01D0E0C0E0F7018191F2
:1013A0007F01882361F0D8011896ED91FC9119977F
:1013B000B8010995892B91F3DFEFCFEFEFCF8D2F98
:1013C0009C2F02C08FEF9FEFCDB7DEB7E6E051C391
:1013D000AEE0B0E0EDEEF9E032C30D891E8986E0A3
:1013E0008C831A8309838FEF9FE79E838D83AE01E1
:1013F000475E5F4F6F89788DCE01019608D0EF81EF
:10140000F885E00FF11F10822E96E4E034C3ABE0C4
:10141000B0E0ECE0FAE005C36C017B018A01FC015D
:1014200017821682838181FFC0C1CE0101963C01E3
:10143000F6019381F70193FD859193FF81917F01DF
:10144000882309F4AEC1853239F493FD859193FF69
:1014500081917F01853221F4B60190E002D2E8CF7C
:10146000912C212C312CFFE1F315E0F08B3279F037
:1014700038F4803279F08332A9F4232D206110C032
:101480008D3259F0803371F4232D216009C0832DF2
:101490008260382EE32DE46022C0F32DF86025C071
:1014A000322E27C037FC2DC020ED280F2A3088F4BB
:1014B00036FE06C0892D6AE070D2922E980E19C0B1
:1014C000822D6AE06AD2222E280E832D8062382E69
:1014D00010C08E3231F436FC64C1E32DE0643E2E40
:1014E00008C08C3621F4F32DF0683F2E02C08836F8
:1014F00041F4F70193FD859193FF81917F01811163
:10150000B2CF982F9F7D9554933028F40C5F1F4FD6
:101510002FE329830DC0833631F0833771F0833593
:1015200009F055C020C0F801808189830E5F1F4FEC
:1015300088248394912C530112C02801F2E04F0EAD
:10154000511CF801A080B18036FE03C0692D70E007
:1015500002C06FEF7FEFC5013BD14C018201F32D3B
:10156000FF773F2E15C0280122E0420E511CF801E2
:10157000A080B18036FE03C0692D70E002C06FEF1D
:101580007FEFC5011AD14C01F32DF0683F2E820187
:1015900033FC19C0822D90E088169906A0F4B6019C
:1015A00080E290E05ED12A94F5CFF50137FC859179
:1015B00037FE81915F01B60190E053D121102A944A
:1015C00021E0821A91088114910479F7E1C08436F0
:1015D00011F0893639F5F80137FE07C06081718155
:1015E000828193810C5F1F4F08C060817181072E3B
:1015F000000C880B990B0E5F1F4FF32DFF763F2ECB
:1016000097FF09C090958095709561957F4F8F4F9A
:101610009F4FF0683F2E2AE030E0A3015ED1882E74
:10162000861844C0853731F4232D2F7EB22E2AE050
:1016300030E025C0932D997FB92E8F36C1F018F474
:10164000883579F0AEC0803719F0883721F0A9C00D
:10165000E92FE061BE2EB4FE0DC0FB2DF460BF2E5D
:1016600009C034FE0AC0292F2660B22E06C028E029
:1016700030E005C020E130E002C020E132E0F801B6
:10168000B7FE07C060817181828193810C5F1F4F1B
:1016900006C06081718180E090E00E5F1F4FA30162
:1016A0001CD1882E8618FB2DFF773F2E36FE0DC0ED
:1016B000232D2E7FA22E891458F434FE0BC032FC49
:1016C00009C0832D8E7EA82E05C0B82CA32C03C084
:1016D000B82C01C0B92CA4FE0FC0FE01E80DF11D0D
:1016E0008081803321F49A2D997EA92E09C0A2FE13
:1016F00006C0B394B39404C08A2D867809F0B394DD
:10170000A3FC10C0A0FE06C0B21480F4280C922CDA
:101710009B180DC0B21458F4B60180E290E0A1D03D
:10172000B394F8CFB21418F42B1802C0982C212CC3
:10173000A4FE0FC0B60180E390E093D0A2FE16C0D5
:10174000A1FC03C088E790E002C088E590E0B60104
:101750000CC08A2D867851F0A1FE02C08BE201C038
:1017600080E2A7FC8DE2B60190E07BD0891430F4D2
:10177000B60180E390E075D09A94F8CF8A94F30193
:10178000E80DF11D8081B60190E06BD08110F6CF9D
:10179000222009F44DCEB60180E290E062D02A9476
:1017A000F7CFF6018681978102C08FEF9FEF2B96CE
:1017B000E2E153C1992788270895FC010590615003
:1017C00070400110D8F7809590958E0F9F1F089557
:1017D000FC016150704001900110D8F78095909500
:1017E0008E0F9F1F0895CF93DF93EC012B8120FF75
:1017F00033C026FF0AC02F7B2B838E819F810196E9
:101800009F838E838A8190E029C022FF0FC0E881E8
:10181000F9818081082E000C990B009719F4206241
:101820002B831AC03196F983E8830EC0EA85FB85C5
:10183000099597FF09C02B81019611F080E201C044
:1018400080E1822B8B8308C02E813F812F5F3F4F29
:101850003F832E83992702C08FEF9FEFDF91CF91B7
:1018600008950F931F93CF93DF93FB01238121FDF5
:1018700003C08FEF9FEF2CC022FF16C04681578117
:10188000248135814217530744F4A081B1819D0121
:101890002F5F3F4F318320838C93268137812F5FC9
:1018A0003F4F3783268314C08B01EC01FB0100847A
:1018B000F185E02D0995892BE1F6D80116968D91D9
:1018C0009C911797019617969C938E931697CE012D
:1018D000DF91CF911F910F910895FA01AA27283027
:1018E00061F1203191F1E8946F936E7F6E5F7F4FCD
:1018F0008F4F9F4FAF4FB1E040D0B4E03ED0670F65
:10190000781F891F9A1FA11D680F791F8A1F911DBB
:10191000A11D6A0F711D811D911DA11D22D009F409
:1019200068943F91062E000C3019000C000C301901
:10193000305D3193CEF6CF010895462F4770405D5C
:101940004193B3E00FD0C9F7F6CF462F4F70405DFB
:101950004A3318F0495D31FD4052419302D0A9F756
:10196000EACFB4E0A6959795879577956795BA9550
:10197000C9F700976105710508959B01AC010A2E16
:1019800006945795479537952795BA95C9F7620FED
:10199000731F841F951FA01D0895002480FD060E4F
:1019A000660F11F08695D1F7802D0895EE27FF2759
:1019B000AA27BB2708C0A20FB31FE41FF51F220FE1
:1019C000331F441F551F969587957795679598F314
:1019D0007040A9F7009799F7BD01CF010895A1E2E2
:1019E0001A2EAA1BBB1BFD010DC0AA1FBB1FEE1F99
:1019F000FF1FA217B307E407F50720F0A21BB30BE4
:101A0000E40BF50B661F771F881F991F1A9469F75F
:101A100060957095809590959B01AC01BD01CF01BB
:101A200008952F923F924F925F926F927F928F9282
:101A30009F92AF92BF92CF92DF92EF92FF920F935D
:101A40001F93CF93DF93CDB7DEB7CA1BDB0B0FB667
:101A5000F894DEBF0FBECDBF09942A883988488824
:101A60005F846E847D848C849B84AA84B984C884BA
:101A7000DF80EE80FD800C811B81AA81B981CE0FB1
:101A8000D11D0FB6F894DEBF0FBECDBFED01089596
:041A9000F894FFCFF8
:101A9400008310000001041000000182080000010E
:101AA4000000000000000000000000436F6D6D6145
:101AB4006E6473206D75737420737461727420770F
:101AC400697468202B206F72202D2E0042616420DF
:101AD400636F6D6D616E640050756C736520666133
:101AE400696C656400256400506F73697469766578
:101AF4002050756C73652073656E7420746F2000BC
:101B04004E656761746976652050756C73652073E2
:081B1400656E7420746F20005F
:00000001FF
